{
  "contractName": "ForgeToken",
  "abi": [
    {
      "anonymous": false,
      "inputs": [
        {
          "indexed": true,
          "internalType": "address",
          "name": "account",
          "type": "address"
        },
        {
          "indexed": true,
          "internalType": "address",
          "name": "operator",
          "type": "address"
        },
        {
          "indexed": false,
          "internalType": "bool",
          "name": "approved",
          "type": "bool"
        }
      ],
      "name": "ApprovalForAll",
      "type": "event"
    },
    {
      "anonymous": false,
      "inputs": [
        {
          "indexed": false,
          "internalType": "address",
          "name": "account",
          "type": "address"
        }
      ],
      "name": "Paused",
      "type": "event"
    },
    {
      "anonymous": false,
      "inputs": [
        {
          "indexed": true,
          "internalType": "bytes32",
          "name": "role",
          "type": "bytes32"
        },
        {
          "indexed": true,
          "internalType": "bytes32",
          "name": "previousAdminRole",
          "type": "bytes32"
        },
        {
          "indexed": true,
          "internalType": "bytes32",
          "name": "newAdminRole",
          "type": "bytes32"
        }
      ],
      "name": "RoleAdminChanged",
      "type": "event"
    },
    {
      "anonymous": false,
      "inputs": [
        {
          "indexed": true,
          "internalType": "bytes32",
          "name": "role",
          "type": "bytes32"
        },
        {
          "indexed": true,
          "internalType": "address",
          "name": "account",
          "type": "address"
        },
        {
          "indexed": true,
          "internalType": "address",
          "name": "sender",
          "type": "address"
        }
      ],
      "name": "RoleGranted",
      "type": "event"
    },
    {
      "anonymous": false,
      "inputs": [
        {
          "indexed": true,
          "internalType": "bytes32",
          "name": "role",
          "type": "bytes32"
        },
        {
          "indexed": true,
          "internalType": "address",
          "name": "account",
          "type": "address"
        },
        {
          "indexed": true,
          "internalType": "address",
          "name": "sender",
          "type": "address"
        }
      ],
      "name": "RoleRevoked",
      "type": "event"
    },
    {
      "anonymous": false,
      "inputs": [
        {
          "indexed": true,
          "internalType": "address",
          "name": "operator",
          "type": "address"
        },
        {
          "indexed": true,
          "internalType": "address",
          "name": "from",
          "type": "address"
        },
        {
          "indexed": true,
          "internalType": "address",
          "name": "to",
          "type": "address"
        },
        {
          "indexed": false,
          "internalType": "uint256[]",
          "name": "ids",
          "type": "uint256[]"
        },
        {
          "indexed": false,
          "internalType": "uint256[]",
          "name": "values",
          "type": "uint256[]"
        }
      ],
      "name": "TransferBatch",
      "type": "event"
    },
    {
      "anonymous": false,
      "inputs": [
        {
          "indexed": true,
          "internalType": "address",
          "name": "operator",
          "type": "address"
        },
        {
          "indexed": true,
          "internalType": "address",
          "name": "from",
          "type": "address"
        },
        {
          "indexed": true,
          "internalType": "address",
          "name": "to",
          "type": "address"
        },
        {
          "indexed": false,
          "internalType": "uint256",
          "name": "id",
          "type": "uint256"
        },
        {
          "indexed": false,
          "internalType": "uint256",
          "name": "value",
          "type": "uint256"
        }
      ],
      "name": "TransferSingle",
      "type": "event"
    },
    {
      "anonymous": false,
      "inputs": [
        {
          "indexed": false,
          "internalType": "string",
          "name": "value",
          "type": "string"
        },
        {
          "indexed": true,
          "internalType": "uint256",
          "name": "id",
          "type": "uint256"
        }
      ],
      "name": "URI",
      "type": "event"
    },
    {
      "anonymous": false,
      "inputs": [
        {
          "indexed": false,
          "internalType": "address",
          "name": "account",
          "type": "address"
        }
      ],
      "name": "Unpaused",
      "type": "event"
    },
    {
      "inputs": [],
      "name": "DEFAULT_ADMIN_ROLE",
      "outputs": [
        {
          "internalType": "bytes32",
          "name": "",
          "type": "bytes32"
        }
      ],
      "stateMutability": "view",
      "type": "function",
      "constant": true
    },
    {
      "inputs": [],
      "name": "MINTER_ROLE",
      "outputs": [
        {
          "internalType": "bytes32",
          "name": "",
          "type": "bytes32"
        }
      ],
      "stateMutability": "view",
      "type": "function",
      "constant": true
    },
    {
      "inputs": [],
      "name": "PAUSER_ROLE",
      "outputs": [
        {
          "internalType": "bytes32",
          "name": "",
          "type": "bytes32"
        }
      ],
      "stateMutability": "view",
      "type": "function",
      "constant": true
    },
    {
      "inputs": [
        {
          "internalType": "address",
          "name": "account",
          "type": "address"
        },
        {
          "internalType": "uint256",
          "name": "id",
          "type": "uint256"
        }
      ],
      "name": "balanceOf",
      "outputs": [
        {
          "internalType": "uint256",
          "name": "",
          "type": "uint256"
        }
      ],
      "stateMutability": "view",
      "type": "function",
      "constant": true
    },
    {
      "inputs": [
        {
          "internalType": "address[]",
          "name": "accounts",
          "type": "address[]"
        },
        {
          "internalType": "uint256[]",
          "name": "ids",
          "type": "uint256[]"
        }
      ],
      "name": "balanceOfBatch",
      "outputs": [
        {
          "internalType": "uint256[]",
          "name": "",
          "type": "uint256[]"
        }
      ],
      "stateMutability": "view",
      "type": "function",
      "constant": true
    },
    {
      "inputs": [
        {
          "internalType": "address",
          "name": "account",
          "type": "address"
        },
        {
          "internalType": "uint256",
          "name": "id",
          "type": "uint256"
        },
        {
          "internalType": "uint256",
          "name": "value",
          "type": "uint256"
        }
      ],
      "name": "burn",
      "outputs": [],
      "stateMutability": "nonpayable",
      "type": "function"
    },
    {
      "inputs": [
        {
          "internalType": "address",
          "name": "account",
          "type": "address"
        },
        {
          "internalType": "uint256[]",
          "name": "ids",
          "type": "uint256[]"
        },
        {
          "internalType": "uint256[]",
          "name": "values",
          "type": "uint256[]"
        }
      ],
      "name": "burnBatch",
      "outputs": [],
      "stateMutability": "nonpayable",
      "type": "function"
    },
    {
      "inputs": [],
      "name": "ethFee",
      "outputs": [
        {
          "internalType": "uint256",
          "name": "",
          "type": "uint256"
        }
      ],
      "stateMutability": "view",
      "type": "function",
      "constant": true
    },
    {
      "inputs": [
        {
          "internalType": "uint256",
          "name": "",
          "type": "uint256"
        }
      ],
      "name": "expirations",
      "outputs": [
        {
          "internalType": "uint256",
          "name": "",
          "type": "uint256"
        }
      ],
      "stateMutability": "view",
      "type": "function",
      "constant": true
    },
    {
      "inputs": [],
      "name": "feeRecipient",
      "outputs": [
        {
          "internalType": "address payable",
          "name": "",
          "type": "address"
        }
      ],
      "stateMutability": "view",
      "type": "function",
      "constant": true
    },
    {
      "inputs": [
        {
          "internalType": "bytes32",
          "name": "role",
          "type": "bytes32"
        }
      ],
      "name": "getRoleAdmin",
      "outputs": [
        {
          "internalType": "bytes32",
          "name": "",
          "type": "bytes32"
        }
      ],
      "stateMutability": "view",
      "type": "function",
      "constant": true
    },
    {
      "inputs": [
        {
          "internalType": "bytes32",
          "name": "role",
          "type": "bytes32"
        },
        {
          "internalType": "uint256",
          "name": "index",
          "type": "uint256"
        }
      ],
      "name": "getRoleMember",
      "outputs": [
        {
          "internalType": "address",
          "name": "",
          "type": "address"
        }
      ],
      "stateMutability": "view",
      "type": "function",
      "constant": true
    },
    {
      "inputs": [
        {
          "internalType": "bytes32",
          "name": "role",
          "type": "bytes32"
        }
      ],
      "name": "getRoleMemberCount",
      "outputs": [
        {
          "internalType": "uint256",
          "name": "",
          "type": "uint256"
        }
      ],
      "stateMutability": "view",
      "type": "function",
      "constant": true
    },
    {
      "inputs": [
        {
          "internalType": "bytes32",
          "name": "role",
          "type": "bytes32"
        },
        {
          "internalType": "address",
          "name": "account",
          "type": "address"
        }
      ],
      "name": "grantRole",
      "outputs": [],
      "stateMutability": "nonpayable",
      "type": "function"
    },
    {
      "inputs": [
        {
          "internalType": "bytes32",
          "name": "role",
          "type": "bytes32"
        },
        {
          "internalType": "address",
          "name": "account",
          "type": "address"
        }
      ],
      "name": "hasRole",
      "outputs": [
        {
          "internalType": "bool",
          "name": "",
          "type": "bool"
        }
      ],
      "stateMutability": "view",
      "type": "function",
      "constant": true
    },
    {
      "inputs": [
        {
          "internalType": "uint256",
          "name": "",
          "type": "uint256"
        }
      ],
      "name": "ipfsHashes",
      "outputs": [
        {
          "internalType": "string",
          "name": "",
          "type": "string"
        }
      ],
      "stateMutability": "view",
      "type": "function",
      "constant": true
    },
    {
      "inputs": [
        {
          "internalType": "address",
          "name": "account",
          "type": "address"
        },
        {
          "internalType": "address",
          "name": "operator",
          "type": "address"
        }
      ],
      "name": "isApprovedForAll",
      "outputs": [
        {
          "internalType": "bool",
          "name": "",
          "type": "bool"
        }
      ],
      "stateMutability": "view",
      "type": "function",
      "constant": true
    },
    {
      "inputs": [
        {
          "internalType": "uint256",
          "name": "",
          "type": "uint256"
        }
      ],
      "name": "minBalances",
      "outputs": [
        {
          "internalType": "uint256",
          "name": "",
          "type": "uint256"
        }
      ],
      "stateMutability": "view",
      "type": "function",
      "constant": true
    },
    {
      "inputs": [
        {
          "internalType": "address",
          "name": "to",
          "type": "address"
        },
        {
          "internalType": "uint256",
          "name": "id",
          "type": "uint256"
        },
        {
          "internalType": "uint256",
          "name": "amount",
          "type": "uint256"
        },
        {
          "internalType": "bytes",
          "name": "data",
          "type": "bytes"
        }
      ],
      "name": "mint",
      "outputs": [],
      "stateMutability": "nonpayable",
      "type": "function"
    },
    {
      "inputs": [
        {
          "internalType": "address",
          "name": "to",
          "type": "address"
        },
        {
          "internalType": "uint256[]",
          "name": "ids",
          "type": "uint256[]"
        },
        {
          "internalType": "uint256[]",
          "name": "amounts",
          "type": "uint256[]"
        },
        {
          "internalType": "bytes",
          "name": "data",
          "type": "bytes"
        }
      ],
      "name": "mintBatch",
      "outputs": [],
      "stateMutability": "nonpayable",
      "type": "function"
    },
    {
      "inputs": [],
      "name": "pause",
      "outputs": [],
      "stateMutability": "nonpayable",
      "type": "function"
    },
    {
      "inputs": [],
      "name": "paused",
      "outputs": [
        {
          "internalType": "bool",
          "name": "",
          "type": "bool"
        }
      ],
      "stateMutability": "view",
      "type": "function",
      "constant": true
    },
    {
      "inputs": [
        {
          "internalType": "bytes32",
          "name": "role",
          "type": "bytes32"
        },
        {
          "internalType": "address",
          "name": "account",
          "type": "address"
        }
      ],
      "name": "renounceRole",
      "outputs": [],
      "stateMutability": "nonpayable",
      "type": "function"
    },
    {
      "inputs": [
        {
          "internalType": "bytes32",
          "name": "role",
          "type": "bytes32"
        },
        {
          "internalType": "address",
          "name": "account",
          "type": "address"
        }
      ],
      "name": "revokeRole",
      "outputs": [],
      "stateMutability": "nonpayable",
      "type": "function"
    },
    {
      "inputs": [
        {
          "internalType": "address",
          "name": "from",
          "type": "address"
        },
        {
          "internalType": "address",
          "name": "to",
          "type": "address"
        },
        {
          "internalType": "uint256[]",
          "name": "ids",
          "type": "uint256[]"
        },
        {
          "internalType": "uint256[]",
          "name": "amounts",
          "type": "uint256[]"
        },
        {
          "internalType": "bytes",
          "name": "data",
          "type": "bytes"
        }
      ],
      "name": "safeBatchTransferFrom",
      "outputs": [],
      "stateMutability": "nonpayable",
      "type": "function"
    },
    {
      "inputs": [
        {
          "internalType": "address",
          "name": "from",
          "type": "address"
        },
        {
          "internalType": "address",
          "name": "to",
          "type": "address"
        },
        {
          "internalType": "uint256",
          "name": "id",
          "type": "uint256"
        },
        {
          "internalType": "uint256",
          "name": "amount",
          "type": "uint256"
        },
        {
          "internalType": "bytes",
          "name": "data",
          "type": "bytes"
        }
      ],
      "name": "safeTransferFrom",
      "outputs": [],
      "stateMutability": "nonpayable",
      "type": "function"
    },
    {
      "inputs": [
        {
          "internalType": "address",
          "name": "operator",
          "type": "address"
        },
        {
          "internalType": "bool",
          "name": "approved",
          "type": "bool"
        }
      ],
      "name": "setApprovalForAll",
      "outputs": [],
      "stateMutability": "nonpayable",
      "type": "function"
    },
    {
      "inputs": [
        {
          "internalType": "bytes4",
          "name": "interfaceId",
          "type": "bytes4"
        }
      ],
      "name": "supportsInterface",
      "outputs": [
        {
          "internalType": "bool",
          "name": "",
          "type": "bool"
        }
      ],
      "stateMutability": "view",
      "type": "function",
      "constant": true
    },
    {
      "inputs": [
        {
          "internalType": "uint256",
          "name": "",
          "type": "uint256"
        }
      ],
      "name": "tokenMinBalances",
      "outputs": [
        {
          "internalType": "address",
          "name": "",
          "type": "address"
        }
      ],
      "stateMutability": "view",
      "type": "function",
      "constant": true
    },
    {
      "inputs": [],
      "name": "unpause",
      "outputs": [],
      "stateMutability": "nonpayable",
      "type": "function"
    },
    {
      "inputs": [],
      "name": "zut",
      "outputs": [
        {
          "internalType": "contract IERC20Upgradeable",
          "name": "",
          "type": "address"
        }
      ],
      "stateMutability": "view",
      "type": "function",
      "constant": true
    },
    {
      "inputs": [],
      "name": "zutFee",
      "outputs": [
        {
          "internalType": "uint256",
          "name": "",
          "type": "uint256"
        }
      ],
      "stateMutability": "view",
      "type": "function",
      "constant": true
    },
    {
      "inputs": [
        {
          "internalType": "contract IERC20Upgradeable",
          "name": "_zut",
          "type": "address"
        },
        {
          "internalType": "address payable",
          "name": "_feeRecipient",
          "type": "address"
        },
        {
          "internalType": "uint256",
          "name": "_ethFee",
          "type": "uint256"
        },
        {
          "internalType": "uint256",
          "name": "_zutFee",
          "type": "uint256"
        }
      ],
      "name": "initialize",
      "outputs": [],
      "stateMutability": "nonpayable",
      "type": "function"
    },
    {
      "inputs": [
        {
          "internalType": "string",
          "name": "uri",
          "type": "string"
        }
      ],
      "name": "initialize",
      "outputs": [],
      "stateMutability": "nonpayable",
      "type": "function"
    },
    {
      "inputs": [
        {
          "internalType": "uint256",
          "name": "tokenId",
          "type": "uint256"
        }
      ],
      "name": "uri",
      "outputs": [
        {
          "internalType": "string",
          "name": "",
          "type": "string"
        }
      ],
      "stateMutability": "view",
      "type": "function",
      "constant": true
    },
    {
      "inputs": [],
      "name": "currentTokenId",
      "outputs": [
        {
          "internalType": "uint256",
          "name": "",
          "type": "uint256"
        }
      ],
      "stateMutability": "view",
      "type": "function",
      "constant": true
    },
    {
      "inputs": [],
      "name": "contractURI",
      "outputs": [
        {
          "internalType": "string",
          "name": "",
          "type": "string"
        }
      ],
      "stateMutability": "view",
      "type": "function",
      "constant": true
    },
    {
      "inputs": [
        {
          "internalType": "uint256",
          "name": "tokenId",
          "type": "uint256"
        },
        {
          "internalType": "address",
          "name": "user",
          "type": "address"
        }
      ],
      "name": "canBurn",
      "outputs": [
        {
          "internalType": "bool",
          "name": "burnable",
          "type": "bool"
        }
      ],
      "stateMutability": "view",
      "type": "function",
      "constant": true
    },
    {
      "inputs": [
        {
          "internalType": "uint256",
          "name": "tokenId",
          "type": "uint256"
        }
      ],
      "name": "getConditions",
      "outputs": [
        {
          "internalType": "address",
          "name": "token",
          "type": "address"
        },
        {
          "internalType": "uint256",
          "name": "minAmount",
          "type": "uint256"
        },
        {
          "internalType": "uint256",
          "name": "expires",
          "type": "uint256"
        }
      ],
      "stateMutability": "view",
      "type": "function",
      "constant": true
    },
    {
      "inputs": [
        {
          "internalType": "uint256",
          "name": "amountTokens",
          "type": "uint256"
        },
        {
          "internalType": "address",
          "name": "tokenAddress",
          "type": "address"
        },
        {
          "internalType": "uint256",
          "name": "minBalance",
          "type": "uint256"
        },
        {
          "internalType": "uint256",
          "name": "expiration",
          "type": "uint256"
        },
        {
          "internalType": "string",
          "name": "ipfsHash",
          "type": "string"
        }
      ],
      "name": "buyWithETH",
      "outputs": [],
      "stateMutability": "payable",
      "type": "function",
      "payable": true
    },
    {
      "inputs": [
        {
          "internalType": "uint256",
          "name": "amountTokens",
          "type": "uint256"
        },
        {
          "internalType": "address",
          "name": "tokenAddress",
          "type": "address"
        },
        {
          "internalType": "uint256",
          "name": "minBalance",
          "type": "uint256"
        },
        {
          "internalType": "uint256",
          "name": "expiration",
          "type": "uint256"
        },
        {
          "internalType": "string",
          "name": "ipfsHash",
          "type": "string"
        }
      ],
      "name": "buyWithZUT",
      "outputs": [],
      "stateMutability": "nonpayable",
      "type": "function"
    },
    {
      "inputs": [
        {
          "internalType": "uint256",
          "name": "tokenId",
          "type": "uint256"
        },
        {
          "internalType": "address",
          "name": "user",
          "type": "address"
        }
      ],
      "name": "burnToken",
      "outputs": [],
      "stateMutability": "nonpayable",
      "type": "function"
    },
    {
      "inputs": [
        {
          "internalType": "uint256[]",
          "name": "tokenIds",
          "type": "uint256[]"
        },
        {
          "internalType": "address[]",
          "name": "users",
          "type": "address[]"
        }
      ],
      "name": "burnTokenBatch",
      "outputs": [],
      "stateMutability": "nonpayable",
      "type": "function"
    },
    {
      "inputs": [
        {
          "internalType": "string",
          "name": "ipfsUrl",
          "type": "string"
        }
      ],
      "name": "setContractURI",
      "outputs": [],
      "stateMutability": "nonpayable",
      "type": "function"
    },
    {
      "inputs": [
        {
          "internalType": "string",
          "name": "baseURI",
          "type": "string"
        }
      ],
      "name": "setBaseURI",
      "outputs": [],
      "stateMutability": "nonpayable",
      "type": "function"
    },
    {
      "inputs": [
        {
          "internalType": "uint256",
          "name": "_ethFee",
          "type": "uint256"
        }
      ],
      "name": "setETHFee",
      "outputs": [],
      "stateMutability": "nonpayable",
      "type": "function"
    },
    {
      "inputs": [
        {
          "internalType": "uint256",
          "name": "_zutFee",
          "type": "uint256"
        }
      ],
      "name": "setZUTFee",
      "outputs": [],
      "stateMutability": "nonpayable",
      "type": "function"
    },
    {
      "inputs": [
        {
          "internalType": "address payable",
          "name": "_feeRecipient",
          "type": "address"
        }
      ],
      "name": "setFeeRecipient",
      "outputs": [],
      "stateMutability": "nonpayable",
      "type": "function"
    }
  ],
  "bytecode": "0x608060405234801561001057600080fd5b50615002806100206000396000f3fe6080604052600436106102915760003560e01c8063731133e91161015a578063ca15c873116100c1578063e8a3d4851161007a578063e8a3d485146113ac578063e985e9c5146113c1578063eb990c59146113fc578063f242432a14611445578063f5298aca1461151b578063f62d18881461155a57610291565b8063ca15c873146112b3578063d5391393146112dd578063d547741f146112f2578063dc593ca51461132b578063e63ab1e914611364578063e74b981b1461137957610291565b80639c9e391a116101135780639c9e391a14611078578063a217fddf1461113d578063a22cb46514611152578063a4de2f5c1461118d578063b4b1a155146111b7578063c251ddf81461128957610291565b8063731133e914610d4c5780638456cb5914610e195780639010d07c14610e2e57806391d1485414610e5e578063938e3d7b14610e975780639a63603014610f4857610291565b80632f2ff15d116101fe5780634e1273f4116101b75780634e1273f41461098757806353678cb214610b0757806355f804b314610b315780635c975abb14610be257806361f322a714610bf75780636b20c45414610c0c57610291565b80632f2ff15d146108ac57806336568abe146108e55780633e8f682f1461091e5780633f4ba83a14610948578063469048401461095d5780634cf1115d1461097257610291565b80631ba313f2116102505780631ba313f2146104475780631eada765146104715780631f7fdffa146104c3578063248a9ca31461068a57806328d199db146106b45780632eb2c2d6146106de57610291565b80629a9b7b14610296578062fdd58e146102bd57806301ffc9a7146102f65780630e89341c1461033e578063114e5e9a146103dd57806313ce7e601461040e575b600080fd5b3480156102a257600080fd5b506102ab61160b565b60408051918252519081900360200190f35b3480156102c957600080fd5b506102ab600480360360408110156102e057600080fd5b506001600160a01b03813516906020013561161e565b34801561030257600080fd5b5061032a6004803603602081101561031957600080fd5b50356001600160e01b031916611690565b604080519115158252519081900360200190f35b34801561034a57600080fd5b506103686004803603602081101561036157600080fd5b50356116af565b6040805160208082528351818301528351919283929083019185019080838360005b838110156103a257818101518382015260200161038a565b50505050905090810190601f1680156103cf5780820380516001836020036101000a031916815260200191505b509250505060405180910390f35b3480156103e957600080fd5b506103f26117e1565b604080516001600160a01b039092168252519081900360200190f35b34801561041a57600080fd5b5061032a6004803603604081101561043157600080fd5b50803590602001356001600160a01b03166117f1565b34801561045357600080fd5b506102ab6004803603602081101561046a57600080fd5b5035611921565b34801561047d57600080fd5b5061049b6004803603602081101561049457600080fd5b5035611934565b604080516001600160a01b039094168452602084019290925282820152519081900360600190f35b3480156104cf57600080fd5b50610688600480360360808110156104e657600080fd5b6001600160a01b038235169190810190604081016020820135600160201b81111561051057600080fd5b82018360208201111561052257600080fd5b803590602001918460208302840111600160201b8311171561054357600080fd5b9190808060200260200160405190810160405280939291908181526020018383602002808284376000920191909152509295949360208101935035915050600160201b81111561059257600080fd5b8201836020820111156105a457600080fd5b803590602001918460208302840111600160201b831117156105c557600080fd5b9190808060200260200160405190810160405280939291908181526020018383602002808284376000920191909152509295949360208101935035915050600160201b81111561061457600080fd5b82018360208201111561062657600080fd5b803590602001918460018302840111600160201b8311171561064757600080fd5b91908080601f01602080910402602001604051908101604052809392919081815260200183838082843760009201919091525092955061196a945050505050565b005b34801561069657600080fd5b506102ab600480360360208110156106ad57600080fd5b50356119d6565b3480156106c057600080fd5b506103f2600480360360208110156106d757600080fd5b50356119eb565b3480156106ea57600080fd5b50610688600480360360a081101561070157600080fd5b6001600160a01b038235811692602081013590911691810190606081016040820135600160201b81111561073457600080fd5b82018360208201111561074657600080fd5b803590602001918460208302840111600160201b8311171561076757600080fd5b9190808060200260200160405190810160405280939291908181526020018383602002808284376000920191909152509295949360208101935035915050600160201b8111156107b657600080fd5b8201836020820111156107c857600080fd5b803590602001918460208302840111600160201b831117156107e957600080fd5b9190808060200260200160405190810160405280939291908181526020018383602002808284376000920191909152509295949360208101935035915050600160201b81111561083857600080fd5b82018360208201111561084a57600080fd5b803590602001918460018302840111600160201b8311171561086b57600080fd5b91908080601f016020809104026020016040519081016040528093929190818152602001838380828437600092019190915250929550611a07945050505050565b3480156108b857600080fd5b50610688600480360360408110156108cf57600080fd5b50803590602001356001600160a01b0316611d0a565b3480156108f157600080fd5b506106886004803603604081101561090857600080fd5b50803590602001356001600160a01b0316611d71565b34801561092a57600080fd5b506106886004803603602081101561094157600080fd5b5035611dd2565b34801561095457600080fd5b50610688611e20565b34801561096957600080fd5b506103f2611e7f565b34801561097e57600080fd5b506102ab611e8f565b34801561099357600080fd5b50610ab7600480360360408110156109aa57600080fd5b810190602081018135600160201b8111156109c457600080fd5b8201836020820111156109d657600080fd5b803590602001918460208302840111600160201b831117156109f757600080fd5b9190808060200260200160405190810160405280939291908181526020018383602002808284376000920191909152509295949360208101935035915050600160201b811115610a4657600080fd5b820183602082011115610a5857600080fd5b803590602001918460208302840111600160201b83111715610a7957600080fd5b919080806020026020016040519081016040528093929190818152602001838360200280828437600092019190915250929550611e96945050505050565b60408051602080825283518183015283519192839290830191858101910280838360005b83811015610af3578181015183820152602001610adb565b505050509050019250505060405180910390f35b348015610b1357600080fd5b5061068860048036036020811015610b2a57600080fd5b5035611f82565b348015610b3d57600080fd5b5061068860048036036020811015610b5457600080fd5b810190602081018135600160201b811115610b6e57600080fd5b820183602082011115610b8057600080fd5b803590602001918460018302840111600160201b83111715610ba157600080fd5b91908080601f016020809104026020016040519081016040528093929190818152602001838380828437600092019190915250929550611fd0945050505050565b348015610bee57600080fd5b5061032a61202c565b348015610c0357600080fd5b506102ab612035565b348015610c1857600080fd5b5061068860048036036060811015610c2f57600080fd5b6001600160a01b038235169190810190604081016020820135600160201b811115610c5957600080fd5b820183602082011115610c6b57600080fd5b803590602001918460208302840111600160201b83111715610c8c57600080fd5b9190808060200260200160405190810160405280939291908181526020018383602002808284376000920191909152509295949360208101935035915050600160201b811115610cdb57600080fd5b820183602082011115610ced57600080fd5b803590602001918460208302840111600160201b83111715610d0e57600080fd5b91908080602002602001604051908101604052809392919081815260200183836020028082843760009201919091525092955061203c945050505050565b348015610d5857600080fd5b5061068860048036036080811015610d6f57600080fd5b6001600160a01b038235169160208101359160408201359190810190608081016060820135600160201b811115610da557600080fd5b820183602082011115610db757600080fd5b803590602001918460018302840111600160201b83111715610dd857600080fd5b91908080601f0160208091040260200160405190810160405280939291908181526020018383808284376000920191909152509295506120b5945050505050565b348015610e2557600080fd5b50610688612116565b348015610e3a57600080fd5b506103f260048036036040811015610e5157600080fd5b5080359060200135612173565b348015610e6a57600080fd5b5061032a60048036036040811015610e8157600080fd5b50803590602001356001600160a01b0316612192565b348015610ea357600080fd5b5061068860048036036020811015610eba57600080fd5b810190602081018135600160201b811115610ed457600080fd5b820183602082011115610ee657600080fd5b803590602001918460018302840111600160201b83111715610f0757600080fd5b91908080601f0160208091040260200160405190810160405280939291908181526020018383808284376000920191909152509295506121aa945050505050565b348015610f5457600080fd5b5061068860048036036040811015610f6b57600080fd5b810190602081018135600160201b811115610f8557600080fd5b820183602082011115610f9757600080fd5b803590602001918460208302840111600160201b83111715610fb857600080fd5b9190808060200260200160405190810160405280939291908181526020018383602002808284376000920191909152509295949360208101935035915050600160201b81111561100757600080fd5b82018360208201111561101957600080fd5b803590602001918460208302840111600160201b8311171561103a57600080fd5b919080806020026020016040519081016040528093929190818152602001838360200280828437600092019190915250929550612206945050505050565b610688600480360360a081101561108e57600080fd5b8135916001600160a01b036020820135169160408201359160608101359181019060a081016080820135600160201b8111156110c957600080fd5b8201836020820111156110db57600080fd5b803590602001918460018302840111600160201b831117156110fc57600080fd5b91908080601f01602080910402602001604051908101604052809392919081815260200183838082843760009201919091525092955061224a945050505050565b34801561114957600080fd5b506102ab612490565b34801561115e57600080fd5b506106886004803603604081101561117557600080fd5b506001600160a01b0381351690602001351515612495565b34801561119957600080fd5b50610368600480360360208110156111b057600080fd5b5035612584565b3480156111c357600080fd5b50610688600480360360a08110156111da57600080fd5b8135916001600160a01b036020820135169160408201359160608101359181019060a081016080820135600160201b81111561121557600080fd5b82018360208201111561122757600080fd5b803590602001918460018302840111600160201b8311171561124857600080fd5b91908080601f016020809104026020016040519081016040528093929190818152602001838380828437600092019190915250929550612620945050505050565b34801561129557600080fd5b506102ab600480360360208110156112ac57600080fd5b5035612796565b3480156112bf57600080fd5b506102ab600480360360208110156112d657600080fd5b50356127a9565b3480156112e957600080fd5b506102ab6127c0565b3480156112fe57600080fd5b506106886004803603604081101561131557600080fd5b50803590602001356001600160a01b03166127d2565b34801561133757600080fd5b506106886004803603604081101561134e57600080fd5b50803590602001356001600160a01b031661282b565b34801561137057600080fd5b506102ab6128fe565b34801561138557600080fd5b506106886004803603602081101561139c57600080fd5b50356001600160a01b0316612910565b3480156113b857600080fd5b5061036861297b565b3480156113cd57600080fd5b5061032a600480360360408110156113e457600080fd5b506001600160a01b0381358116916020013516612a12565b34801561140857600080fd5b506106886004803603608081101561141f57600080fd5b506001600160a01b03813581169160208101359091169060408101359060600135612a40565b34801561145157600080fd5b50610688600480360360a081101561146857600080fd5b6001600160a01b03823581169260208101359091169160408201359160608101359181019060a081016080820135600160201b8111156114a757600080fd5b8201836020820111156114b957600080fd5b803590602001918460018302840111600160201b831117156114da57600080fd5b91908080601f016020809104026020016040519081016040528093929190818152602001838380828437600092019190915250929550612b6c945050505050565b34801561152757600080fd5b506106886004803603606081101561153e57600080fd5b506001600160a01b038135169060208101359060400135612d37565b34801561156657600080fd5b506106886004803603602081101561157d57600080fd5b810190602081018135600160201b81111561159757600080fd5b8201836020820111156115a957600080fd5b803590602001918460018302840111600160201b831117156115ca57600080fd5b91908080601f016020809104026020016040519081016040528093929190818152602001838380828437600092019190915250929550612dab945050505050565b6000611618610191612e56565b90505b90565b60006001600160a01b0383166116655760405162461bcd60e51b815260040180806020018281038252602b815260200180614bf5602b913960400191505060405180910390fd5b5060008181526097602090815260408083206001600160a01b03861684529091529020545b92915050565b6001600160e01b03191660009081526065602052604090205460ff1690565b610197805460408051602060026001851615610100026000190190941693909304601f810184900484028201840190925281815260609361168a939192909183018282801561173f5780601f106117145761010080835404028352916020019161173f565b820191906000526020600020905b81548152906001019060200180831161172257829003601f168201915b505050600086815261019860209081526040918290208054835160026001831615610100026000190190921691909104601f8101849004840282018401909452838152945092508301828280156117d75780601f106117ac576101008083540402835291602001916117d7565b820191906000526020600020905b8154815290600101906020018083116117ba57829003601f168201915b5050505050612e5a565b610192546001600160a01b031681565b60006117fd828461161e565b15806118235750600083815261019960205260409020546001600160a01b038381169116145b156118305750600061168a565b600083815261019a60205260409020546001600160a01b0316156118e857600083815261019b602090815260408083205461019a8352928190205481516370a0823160e01b81526001600160a01b038781166004830152925192909116926370a0823192602480840193829003018186803b1580156118ae57600080fd5b505afa1580156118c2573d6000803e3d6000fd5b505050506040513d60208110156118d857600080fd5b505110156118e85750600161168a565b600083815261019c6020526040902054158015906119145750600083815261019c602052604090205442115b1561168a5750600161168a565b61019b6020526000908152604090205481565b600090815261019a602090815260408083205461019b83528184205461019c9093529220546001600160a01b0390921692909190565b611989600080516020614e45833981519152611984612e96565b612192565b6119c45760405162461bcd60e51b8152600401808060200182810382526038815260200180614da26038913960400191505060405180910390fd5b6119d084848484612e9a565b50505050565b60009081526033602052604090206002015490565b61019a602052600090815260409020546001600160a01b031681565b8151835114611a475760405162461bcd60e51b8152600401808060200182810382526028815260200180614f556028913960400191505060405180910390fd5b6001600160a01b038416611a8c5760405162461bcd60e51b8152600401808060200182810382526025815260200180614cc36025913960400191505060405180910390fd5b611a94612e96565b6001600160a01b0316856001600160a01b03161480611abf5750611abf85611aba612e96565b612a12565b611afa5760405162461bcd60e51b8152600401808060200182810382526032815260200180614ce86032913960400191505060405180910390fd5b6000611b04612e96565b9050611b148187878787876130e8565b60005b8451811015611c1a576000858281518110611b2e57fe5b602002602001015190506000858381518110611b4657fe5b60200260200101519050611bb3816040518060600160405280602a8152602001614dda602a91396097600086815260200190815260200160002060008d6001600160a01b03166001600160a01b03168152602001908152602001600020546131a29092919063ffffffff16565b60008381526097602090815260408083206001600160a01b038e811685529252808320939093558a1681522054611bea9082613239565b60009283526097602090815260408085206001600160a01b038c1686529091529092209190915550600101611b17565b50846001600160a01b0316866001600160a01b0316826001600160a01b03167f4a39dc06d4c0dbc64b70af90fd698a233a518aa5d07e595d983b8c0526c8f7fb8787604051808060200180602001838103835285818151815260200191508051906020019060200280838360005b83811015611ca0578181015183820152602001611c88565b50505050905001838103825284818151815260200191508051906020019060200280838360005b83811015611cdf578181015183820152602001611cc7565b5050505090500194505050505060405180910390a4611d02818787878787613293565b505050505050565b600082815260336020526040902060020154611d2890611984612e96565b611d635760405162461bcd60e51b815260040180806020018281038252602f815260200180614bc6602f913960400191505060405180910390fd5b611d6d8282613509565b5050565b611d79612e96565b6001600160a01b0316816001600160a01b031614611dc85760405162461bcd60e51b815260040180806020018281038252602f815260200180614f9e602f913960400191505060405180910390fd5b611d6d8282613572565b611ddf6000611984612e96565b611e1a5760405162461bcd60e51b8152600401808060200182810382526037815260200180614d1a6037913960400191505060405180910390fd5b61019355565b611e3a600080516020614e25833981519152611984612e96565b611e755760405162461bcd60e51b815260040180806020018281038252603b815260200180614e65603b913960400191505060405180910390fd5b611e7d6135db565b565b610195546001600160a01b031681565b6101935481565b60608151835114611ed85760405162461bcd60e51b8152600401808060200182810382526029815260200180614f2c6029913960400191505060405180910390fd5b6000835167ffffffffffffffff81118015611ef257600080fd5b50604051908082528060200260200182016040528015611f1c578160200160208202803683370190505b50905060005b8451811015611f7a57611f5b858281518110611f3a57fe5b6020026020010151858381518110611f4e57fe5b602002602001015161161e565b828281518110611f6757fe5b6020908102919091010152600101611f22565b509392505050565b611f8f6000611984612e96565b611fca5760405162461bcd60e51b8152600401808060200182810382526037815260200180614d1a6037913960400191505060405180910390fd5b61019455565b611fdd6000611984612e96565b6120185760405162461bcd60e51b8152600401808060200182810382526037815260200180614d1a6037913960400191505060405180910390fd5b8051611d6d906101979060208401906149fb565b60fb5460ff1690565b6101945481565b612044612e96565b6001600160a01b0316836001600160a01b0316148061206a575061206a83611aba612e96565b6120a55760405162461bcd60e51b8152600401808060200182810382526029815260200180614c446029913960400191505060405180910390fd5b6120b083838361367b565b505050565b6120cf600080516020614e45833981519152611984612e96565b61210a5760405162461bcd60e51b8152600401808060200182810382526038815260200180614da26038913960400191505060405180910390fd5b6119d0848484846138e9565b612130600080516020614e25833981519152611984612e96565b61216b5760405162461bcd60e51b8152600401808060200182810382526039815260200180614ea06039913960400191505060405180910390fd5b611e7d6139ea565b600082815260336020526040812061218b9083613a6d565b9392505050565b600082815260336020526040812061218b9083613a79565b6121b76000611984612e96565b6121f25760405162461bcd60e51b8152600401808060200182810382526037815260200180614d1a6037913960400191505060405180910390fd5b8051611d6d906101969060208401906149fb565b60005b82518110156120b05761224283828151811061222157fe5b602002602001015183838151811061223557fe5b602002602001015161282b565b600101612209565b6101935460009061225b9087613a8e565b9050803410156122a8576040805162461bcd60e51b8152602060048201526013602482015272139bdd08195b9bdd59da08115512081cd95b9d606a1b604482015290519081900360640190fd5b82156122f5574283116122f5576040805162461bcd60e51b815260206004820152601060248201526f151a5b59481a5b881d1a19481c185cdd60821b604482015290519081900360640190fd5b8315612348576001600160a01b038516612348576040805162461bcd60e51b815260206004820152600f60248201526e496e76616c6964204164647265737360881b604482015290519081900360640190fd5b6000612355610191612e56565b600081815261019860209081526040909120855192935061237a9290918601906149fb565b50600081815261019a6020908152604080832080546001600160a01b038b166001600160a01b03199182161790915561019b835281842089905561019c83528184208890556101999092529091208054909116331790556123f36123dc612e96565b8289604051806020016040528060008152506138e9565b6123fb613ae7565b610195546040516001600160a01b039091169083156108fc029084906000818181858888f19350505050158015612436573d6000803e3d6000fd5b508134111561248757612447612e96565b6001600160a01b03166108fc61245d3485613af2565b6040518115909202916000818181858888f19350505050158015612485573d6000803e3d6000fd5b505b50505050505050565b600081565b816001600160a01b03166124a7612e96565b6001600160a01b031614156124ed5760405162461bcd60e51b8152600401808060200182810382526029815260200180614ed96029913960400191505060405180910390fd5b80609860006124fa612e96565b6001600160a01b03908116825260208083019390935260409182016000908120918716808252919093529120805460ff19169215159290921790915561253e612e96565b6001600160a01b03167f17307eab39ab6107e8899845ad3d59bd9653f200f220920489ca2b5937696c318360405180821515815260200191505060405180910390a35050565b6101986020908152600091825260409182902080548351601f6002600019610100600186161502019093169290920491820184900484028101840190945280845290918301828280156126185780601f106125ed57610100808354040283529160200191612618565b820191906000526020600020905b8154815290600101906020018083116125fb57829003601f168201915b505050505081565b811561266d5742821161266d576040805162461bcd60e51b815260206004820152601060248201526f151a5b59481a5b881d1a19481c185cdd60821b604482015290519081900360640190fd5b82156126c0576001600160a01b0384166126c0576040805162461bcd60e51b815260206004820152600f60248201526e496e76616c6964204164647265737360881b604482015290519081900360640190fd5b610194546000906126d19087613a8e565b90506126fa6126de612e96565b61019554610192546001600160a01b0390811692911684613b4f565b6000612707610191612e56565b600081815261019860209081526040909120855192935061272c9290918601906149fb565b50600081815261019a6020908152604080832080546001600160a01b038b166001600160a01b03199182161790915561019b835281842089905561019c835281842088905561019990925290912080549091163317905561278e6123dc612e96565b612487613ae7565b61019c6020526000908152604090205481565b600081815260336020526040812061168a90613ba9565b600080516020614e4583398151915281565b6000828152603360205260409020600201546127f090611984612e96565b611dc85760405162461bcd60e51b8152600401808060200182810382526030815260200180614c936030913960400191505060405180910390fd5b61283582826117f1565b61287d576040805162461bcd60e51b815260206004820152601460248201527310d85b89dd08189d5c9b881d1bdad95b881e595d60621b604482015290519081900360640190fd5b6128a97f3c11d16cbaffd01df69ce1c404f6340ee057498f5f00246190ea54220576a848611984612e96565b6128f2576040805162461bcd60e51b81526020600482015260156024820152744d7573742068617665206275726e657220726f6c6560581b604482015290519081900360640190fd5b611d6d81836001613bb4565b600080516020614e2583398151915281565b61291d6000611984612e96565b6129585760405162461bcd60e51b8152600401808060200182810382526037815260200180614d1a6037913960400191505060405180910390fd5b61019580546001600160a01b0319166001600160a01b0392909216919091179055565b6101968054604080516020601f6002600019610100600188161502019095169490940493840181900481028201810190925282815260609390929091830182828015612a085780601f106129dd57610100808354040283529160200191612a08565b820191906000526020600020905b8154815290600101906020018083116129eb57829003601f168201915b5050505050905090565b6001600160a01b03918216600090815260986020908152604080832093909416825291909152205460ff1690565b600054610100900460ff1680612a595750612a59613ce7565b80612a67575060005460ff16155b612aa25760405162461bcd60e51b815260040180806020018281038252602e815260200180614d51602e913960400191505060405180910390fd5b600054610100900460ff16158015612acd576000805460ff1961ff0019909116610100171660011790555b612ae560405180602001604052806000815250612dab565b60408051808201909152600780825266697066733a2f2f60c81b6020909201918252612b1491610197916149fb565b5061019280546001600160a01b038088166001600160a01b0319928316179092556101958054928716929091169190911790556101938390556101948290558015612b65576000805461ff00191690555b5050505050565b6001600160a01b038416612bb15760405162461bcd60e51b8152600401808060200182810382526025815260200180614cc36025913960400191505060405180910390fd5b612bb9612e96565b6001600160a01b0316856001600160a01b03161480612bdf5750612bdf85611aba612e96565b612c1a5760405162461bcd60e51b8152600401808060200182810382526029815260200180614c446029913960400191505060405180910390fd5b6000612c24612e96565b9050612c44818787612c3588613cf8565b612c3e88613cf8565b876130e8565b612c8b836040518060600160405280602a8152602001614dda602a913960008781526097602090815260408083206001600160a01b038d16845290915290205491906131a2565b60008581526097602090815260408083206001600160a01b038b81168552925280832093909355871681522054612cc29084613239565b60008581526097602090815260408083206001600160a01b03808b168086529184529382902094909455805188815291820187905280518a8416938616927fc3d58168c5ae7397731d063d5bbf3d657854427343f4c083240f7aacaa2d0f6292908290030190a4611d02818787878787613d3d565b612d3f612e96565b6001600160a01b0316836001600160a01b03161480612d655750612d6583611aba612e96565b612da05760405162461bcd60e51b8152600401808060200182810382526029815260200180614c446029913960400191505060405180910390fd5b6120b0838383613bb4565b600054610100900460ff1680612dc45750612dc4613ce7565b80612dd2575060005460ff16155b612e0d5760405162461bcd60e51b815260040180806020018281038252602e815260200180614d51602e913960400191505060405180910390fd5b600054610100900460ff16158015612e38576000805460ff1961ff0019909116610100171660011790555b612e4182613eae565b8015611d6d576000805461ff00191690555050565b5490565b606061218b8383604051806020016040528060008152506040518060200160405280600081525060405180602001604052806000815250613f7d565b3390565b6001600160a01b038416612edf5760405162461bcd60e51b8152600401808060200182810382526021815260200180614f7d6021913960400191505060405180910390fd5b8151835114612f1f5760405162461bcd60e51b8152600401808060200182810382526028815260200180614f556028913960400191505060405180910390fd5b6000612f29612e96565b9050612f3a816000878787876130e8565b60005b8451811015612ffe57612fb560976000878481518110612f5957fe5b602002602001015181526020019081526020016000206000886001600160a01b03166001600160a01b0316815260200190815260200160002054858381518110612f9f57fe5b602002602001015161323990919063ffffffff16565b60976000878481518110612fc557fe5b602090810291909101810151825281810192909252604090810160009081206001600160a01b038b168252909252902055600101612f3d565b50846001600160a01b031660006001600160a01b0316826001600160a01b03167f4a39dc06d4c0dbc64b70af90fd698a233a518aa5d07e595d983b8c0526c8f7fb8787604051808060200180602001838103835285818151815260200191508051906020019060200280838360005b8381101561308557818101518382015260200161306d565b50505050905001838103825284818151815260200191508051906020019060200280838360005b838110156130c45781810151838201526020016130ac565b5050505090500194505050505060405180910390a4612b6581600087878787613293565b6001600160a01b0385161580159061310857506001600160a01b03841615155b15611d025760005b83518110156124875761312985858381518110611f4e57fe5b158015613149575082818151811061313d57fe5b60200260200101516001145b61319a576040805162461bcd60e51b815260206004820181905260248201527f557365722063616e206f776e206f6e6c79203120746f6b656e20706572206964604482015290519081900360640190fd5b600101613110565b600081848411156132315760405162461bcd60e51b81526004018080602001828103825283818151815260200191508051906020019080838360005b838110156131f65781810151838201526020016131de565b50505050905090810190601f1680156132235780820380516001836020036101000a031916815260200191505b509250505060405180910390fd5b505050900390565b60008282018381101561218b576040805162461bcd60e51b815260206004820152601b60248201527f536166654d6174683a206164646974696f6e206f766572666c6f770000000000604482015290519081900360640190fd5b6132a5846001600160a01b03166141a3565b15611d0257836001600160a01b031663bc197c8187878686866040518663ffffffff1660e01b815260040180866001600160a01b03168152602001856001600160a01b03168152602001806020018060200180602001848103845287818151815260200191508051906020019060200280838360005b8381101561333357818101518382015260200161331b565b50505050905001848103835286818151815260200191508051906020019060200280838360005b8381101561337257818101518382015260200161335a565b50505050905001848103825285818151815260200191508051906020019080838360005b838110156133ae578181015183820152602001613396565b50505050905090810190601f1680156133db5780820380516001836020036101000a031916815260200191505b5098505050505050505050602060405180830381600087803b15801561340057600080fd5b505af192505050801561342557506040513d602081101561342057600080fd5b505160015b6134ba57613431614aa2565b8061343c5750613483565b60405162461bcd60e51b81526020600482018181528351602484015283518493919283926044019190850190808383600083156131f65781810151838201526020016131de565b60405162461bcd60e51b8152600401808060200182810382526034815260200180614b486034913960400191505060405180910390fd5b6001600160e01b0319811663bc197c8160e01b146124875760405162461bcd60e51b8152600401808060200182810382526028815260200180614b9e6028913960400191505060405180910390fd5b600082815260336020526040902061352190826141a9565b15611d6d5761352e612e96565b6001600160a01b0316816001600160a01b0316837f2f8788117e7eff1d82e926ec794901d17c78024a50270940304540a733656f0d60405160405180910390a45050565b600082815260336020526040902061358a90826141be565b15611d6d57613597612e96565b6001600160a01b0316816001600160a01b0316837ff6391f5c32d9c69d2a47ea670b442974b53935d1edc7fd64eb21e047a839171b60405160405180910390a45050565b6135e361202c565b61362b576040805162461bcd60e51b815260206004820152601460248201527314185d5cd8589b194e881b9bdd081c185d5cd95960621b604482015290519081900360640190fd5b60fb805460ff191690557f5db9ee0a495bf2e6ff9c91a7834c1ba4fdd244a5e8aa4e537bd38aeae4b073aa61365e612e96565b604080516001600160a01b039092168252519081900360200190a1565b6001600160a01b0383166136c05760405162461bcd60e51b8152600401808060200182810382526023815260200180614d7f6023913960400191505060405180910390fd5b80518251146137005760405162461bcd60e51b8152600401808060200182810382526028815260200180614f556028913960400191505060405180910390fd5b600061370a612e96565b905061372a818560008686604051806020016040528060008152506130e8565b60005b8351811015613808576137bf83828151811061374557fe5b6020026020010151604051806060016040528060248152602001614c20602491396097600088868151811061377657fe5b602002602001015181526020019081526020016000206000896001600160a01b03166001600160a01b03168152602001908152602001600020546131a29092919063ffffffff16565b609760008684815181106137cf57fe5b602090810291909101810151825281810192909252604090810160009081206001600160a01b038a16825290925290205560010161372d565b5060006001600160a01b0316846001600160a01b0316826001600160a01b03167f4a39dc06d4c0dbc64b70af90fd698a233a518aa5d07e595d983b8c0526c8f7fb8686604051808060200180602001838103835285818151815260200191508051906020019060200280838360005b8381101561388f578181015183820152602001613877565b50505050905001838103825284818151815260200191508051906020019060200280838360005b838110156138ce5781810151838201526020016138b6565b5050505090500194505050505060405180910390a450505050565b6001600160a01b03841661392e5760405162461bcd60e51b8152600401808060200182810382526021815260200180614f7d6021913960400191505060405180910390fd5b6000613938612e96565b905061394a81600087612c3588613cf8565b60008481526097602090815260408083206001600160a01b03891684529091529020546139779084613239565b60008581526097602090815260408083206001600160a01b03808b16808652918452828520959095558151898152928301889052815190948616927fc3d58168c5ae7397731d063d5bbf3d657854427343f4c083240f7aacaa2d0f6292908290030190a4612b6581600087878787613d3d565b6139f261202c565b15613a37576040805162461bcd60e51b815260206004820152601060248201526f14185d5cd8589b194e881c185d5cd95960821b604482015290519081900360640190fd5b60fb805460ff191660011790557f62e78cea01bee320cd4e420270b5ea74000d11b0c9f74754ebdbfc544b05a25861365e612e96565b600061218b83836141d3565b600061218b836001600160a01b038416614237565b600082613a9d5750600061168a565b82820282848281613aaa57fe5b041461218b5760405162461bcd60e51b8152600401808060200182810382526021815260200180614e046021913960400191505060405180910390fd5b611e7d61019161424f565b600082821115613b49576040805162461bcd60e51b815260206004820152601e60248201527f536166654d6174683a207375627472616374696f6e206f766572666c6f770000604482015290519081900360640190fd5b50900390565b604080516001600160a01b0380861660248301528416604482015260648082018490528251808303909101815260849091019091526020810180516001600160e01b03166323b872dd60e01b1790526119d0908590614258565b600061168a82612e56565b6001600160a01b038316613bf95760405162461bcd60e51b8152600401808060200182810382526023815260200180614d7f6023913960400191505060405180910390fd5b6000613c03612e96565b9050613c3381856000613c1587613cf8565b613c1e87613cf8565b604051806020016040528060008152506130e8565b613c7a82604051806060016040528060248152602001614c206024913960008681526097602090815260408083206001600160a01b038b16845290915290205491906131a2565b60008481526097602090815260408083206001600160a01b03808a16808652918452828520959095558151888152928301879052815193949093908616927fc3d58168c5ae7397731d063d5bbf3d657854427343f4c083240f7aacaa2d0f6292908290030190a450505050565b6000613cf2306141a3565b15905090565b60408051600180825281830190925260609160009190602080830190803683370190505090508281600081518110613d2c57fe5b602090810291909101015292915050565b613d4f846001600160a01b03166141a3565b15611d0257836001600160a01b031663f23a6e6187878686866040518663ffffffff1660e01b815260040180866001600160a01b03168152602001856001600160a01b0316815260200184815260200183815260200180602001828103825283818151815260200191508051906020019080838360005b83811015613dde578181015183820152602001613dc6565b50505050905090810190601f168015613e0b5780820380516001836020036101000a031916815260200191505b509650505050505050602060405180830381600087803b158015613e2e57600080fd5b505af1925050508015613e5357506040513d6020811015613e4e57600080fd5b505160015b613e5f57613431614aa2565b6001600160e01b0319811663f23a6e6160e01b146124875760405162461bcd60e51b8152600401808060200182810382526028815260200180614b9e6028913960400191505060405180910390fd5b600054610100900460ff1680613ec75750613ec7613ce7565b80613ed5575060005460ff16155b613f105760405162461bcd60e51b815260040180806020018281038252602e815260200180614d51602e913960400191505060405180910390fd5b600054610100900460ff16158015613f3b576000805460ff1961ff0019909116610100171660011790555b613f43614309565b613f4b614309565b613f536143ab565b613f5c82614448565b613f64614309565b613f6c6144fe565b613f74614309565b612e41826145a9565b805182518451865188516060948a948a948a948a948a94600094919092019092019091010167ffffffffffffffff81118015613fb857600080fd5b506040519080825280601f01601f191660200182016040528015613fe3576020820181803683370190505b509050806000805b885181101561403c5788818151811061400057fe5b602001015160f81c60f81b83838060010194508151811061401d57fe5b60200101906001600160f81b031916908160001a905350600101613feb565b5060005b87518110156140915787818151811061405557fe5b602001015160f81c60f81b83838060010194508151811061407257fe5b60200101906001600160f81b031916908160001a905350600101614040565b5060005b86518110156140e6578681815181106140aa57fe5b602001015160f81c60f81b8383806001019450815181106140c757fe5b60200101906001600160f81b031916908160001a905350600101614095565b5060005b855181101561413b578581815181106140ff57fe5b602001015160f81c60f81b83838060010194508151811061411c57fe5b60200101906001600160f81b031916908160001a9053506001016140ea565b5060005b84518110156141905784818151811061415457fe5b602001015160f81c60f81b83838060010194508151811061417157fe5b60200101906001600160f81b031916908160001a90535060010161413f565b50909d9c50505050505050505050505050565b3b151590565b600061218b836001600160a01b03841661467c565b600061218b836001600160a01b0384166146c6565b815460009082106142155760405162461bcd60e51b8152600401808060200182810382526022815260200180614b7c6022913960400191505060405180910390fd5b82600001828154811061422457fe5b9060005260206000200154905092915050565b60009081526001919091016020526040902054151590565b80546001019055565b60006142ad826040518060400160405280602081526020017f5361666545524332303a206c6f772d6c6576656c2063616c6c206661696c6564815250856001600160a01b031661478c9092919063ffffffff16565b8051909150156120b0578080602001905160208110156142cc57600080fd5b50516120b05760405162461bcd60e51b815260040180806020018281038252602a815260200180614f02602a913960400191505060405180910390fd5b600054610100900460ff16806143225750614322613ce7565b80614330575060005460ff16155b61436b5760405162461bcd60e51b815260040180806020018281038252602e815260200180614d51602e913960400191505060405180910390fd5b600054610100900460ff16158015614396576000805460ff1961ff0019909116610100171660011790555b80156143a8576000805461ff00191690555b50565b600054610100900460ff16806143c457506143c4613ce7565b806143d2575060005460ff16155b61440d5760405162461bcd60e51b815260040180806020018281038252602e815260200180614d51602e913960400191505060405180910390fd5b600054610100900460ff16158015614438576000805460ff1961ff0019909116610100171660011790555b6143966301ffc9a760e01b6147a3565b600054610100900460ff16806144615750614461613ce7565b8061446f575060005460ff16155b6144aa5760405162461bcd60e51b815260040180806020018281038252602e815260200180614d51602e913960400191505060405180910390fd5b600054610100900460ff161580156144d5576000805460ff1961ff0019909116610100171660011790555b6144de82614827565b6144ee636cdb3d1360e11b6147a3565b612e416303a24d0760e21b6147a3565b600054610100900460ff16806145175750614517613ce7565b80614525575060005460ff16155b6145605760405162461bcd60e51b815260040180806020018281038252602e815260200180614d51602e913960400191505060405180910390fd5b600054610100900460ff1615801561458b576000805460ff1961ff0019909116610100171660011790555b60fb805460ff1916905580156143a8576000805461ff001916905550565b600054610100900460ff16806145c257506145c2613ce7565b806145d0575060005460ff16155b61460b5760405162461bcd60e51b815260040180806020018281038252602e815260200180614d51602e913960400191505060405180910390fd5b600054610100900460ff16158015614636576000805460ff1961ff0019909116610100171660011790555b6146486000614643612e96565b611d63565b614662600080516020614e45833981519152614643612e96565b612e41600080516020614e25833981519152614643612e96565b60006146888383614237565b6146be5750815460018181018455600084815260208082209093018490558454848252828601909352604090209190915561168a565b50600061168a565b6000818152600183016020526040812054801561478257835460001980830191908101906000908790839081106146f957fe5b906000526020600020015490508087600001848154811061471657fe5b60009182526020808320909101929092558281526001898101909252604090209084019055865487908061474657fe5b6001900381819060005260206000200160009055905586600101600087815260200190815260200160002060009055600194505050505061168a565b600091505061168a565b606061479b848460008561483a565b949350505050565b6001600160e01b03198082161415614802576040805162461bcd60e51b815260206004820152601c60248201527f4552433136353a20696e76616c696420696e7465726661636520696400000000604482015290519081900360640190fd5b6001600160e01b0319166000908152606560205260409020805460ff19166001179055565b8051611d6d9060999060208401906149fb565b60608247101561487b5760405162461bcd60e51b8152600401808060200182810382526026815260200180614c6d6026913960400191505060405180910390fd5b614884856141a3565b6148d5576040805162461bcd60e51b815260206004820152601d60248201527f416464726573733a2063616c6c20746f206e6f6e2d636f6e7472616374000000604482015290519081900360640190fd5b600080866001600160a01b031685876040518082805190602001908083835b602083106149135780518252601f1990920191602091820191016148f4565b6001836020036101000a03801982511681845116808217855250505050505090500191505060006040518083038185875af1925050503d8060008114614975576040519150601f19603f3d011682016040523d82523d6000602084013e61497a565b606091505b509150915061498a828286614995565b979650505050505050565b606083156149a457508161218b565b8251156149b45782518084602001fd5b60405162461bcd60e51b81526020600482018181528451602484015284518593919283926044019190850190808383600083156131f65781810151838201526020016131de565b828054600181600116156101000203166002900490600052602060002090601f016020900481019282614a315760008555614a77565b82601f10614a4a57805160ff1916838001178555614a77565b82800160010185558215614a77579182015b82811115614a77578251825591602001919060010190614a5c565b50614a83929150614a87565b5090565b5b80821115614a835760008155600101614a88565b60e01c90565b600060443d1015614ab25761161b565b600481823e6308c379a0614ac68251614a9c565b14614ad05761161b565b6040513d600319016004823e80513d67ffffffffffffffff8160248401118184111715614b00575050505061161b565b82840192508251915080821115614b1a575050505061161b565b503d83016020828401011115614b325750505061161b565b601f01601f191681016020016040529150509056fe455243313135353a207472616e7366657220746f206e6f6e2045524331313535526563656976657220696d706c656d656e746572456e756d657261626c655365743a20696e646578206f7574206f6620626f756e6473455243313135353a204552433131353552656365697665722072656a656374656420746f6b656e73416363657373436f6e74726f6c3a2073656e646572206d75737420626520616e2061646d696e20746f206772616e74455243313135353a2062616c616e636520717565727920666f7220746865207a65726f2061646472657373455243313135353a206275726e20616d6f756e7420657863656564732062616c616e6365455243313135353a2063616c6c6572206973206e6f74206f776e6572206e6f7220617070726f766564416464726573733a20696e73756666696369656e742062616c616e636520666f722063616c6c416363657373436f6e74726f6c3a2073656e646572206d75737420626520616e2061646d696e20746f207265766f6b65455243313135353a207472616e7366657220746f20746865207a65726f2061646472657373455243313135353a207472616e736665722063616c6c6572206973206e6f74206f776e6572206e6f7220617070726f766564455243313135355072657365744d696e7465725061757365723a206d75737420686176652061646d696e20726f6c6520746f206d696e74496e697469616c697a61626c653a20636f6e747261637420697320616c726561647920696e697469616c697a6564455243313135353a206275726e2066726f6d20746865207a65726f2061646472657373455243313135355072657365744d696e7465725061757365723a206d7573742068617665206d696e74657220726f6c6520746f206d696e74455243313135353a20696e73756666696369656e742062616c616e636520666f72207472616e73666572536166654d6174683a206d756c7469706c69636174696f6e206f766572666c6f7765d7a28e3265b37a6474929f336521b332c1681b933f6cb9f3376673440d862a9f2df0fed2c77648de5860a4cc508cd0818c85b8b8a1ab4ceeef8d981c8956a6455243313135355072657365744d696e7465725061757365723a206d75737420686176652070617573657220726f6c6520746f20756e7061757365455243313135355072657365744d696e7465725061757365723a206d75737420686176652070617573657220726f6c6520746f207061757365455243313135353a2073657474696e6720617070726f76616c2073746174757320666f722073656c665361666545524332303a204552433230206f7065726174696f6e20646964206e6f742073756363656564455243313135353a206163636f756e747320616e6420696473206c656e677468206d69736d61746368455243313135353a2069647320616e6420616d6f756e7473206c656e677468206d69736d61746368455243313135353a206d696e7420746f20746865207a65726f2061646472657373416363657373436f6e74726f6c3a2063616e206f6e6c792072656e6f756e636520726f6c657320666f722073656c66a26469706673582212203bda002e0f8b66f6fe07f88b9fe1449b7f016ab3c8c1ab730d534dd7fe248e2364736f6c63430007060033",
  "immutableReferences": {},
  "source": "// SPDX-License-Identifier: MIT\npragma solidity 0.7.6;\n\nimport \"@openzeppelin/contracts-upgradeable/presets/ERC1155PresetMinterPauserUpgradeable.sol\";\nimport \"@openzeppelin/contracts-upgradeable/utils/CountersUpgradeable.sol\";\nimport \"@openzeppelin/contracts-upgradeable/math/SafeMathUpgradeable.sol\";\nimport \"@openzeppelin/contracts-upgradeable/token/ERC20/IERC20Upgradeable.sol\";\nimport \"@openzeppelin/contracts-upgradeable/token/ERC20/SafeERC20Upgradeable.sol\";\nimport \"./utils/Strings.sol\";\n\n/**\n * @title Forge Token Protocol\n * @notice Mint NFTs with burnable conditions\n */\n\ncontract ForgeToken is ERC1155PresetMinterPauserUpgradeable {\n    using CountersUpgradeable for CountersUpgradeable.Counter;\n    using SafeERC20Upgradeable for IERC20Upgradeable;\n    using SafeMathUpgradeable for uint256;\n\n    // === V1 State Vars START ===\n\n    CountersUpgradeable.Counter private _tokenIdTracker;\n\n    IERC20Upgradeable public zut;\n\n    uint256 public ethFee;\n    uint256 public zutFee;\n\n    address payable public feeRecipient;\n\n    string private _contractURI;\n    string private _baseURI;\n    mapping(uint256 => string) public ipfsHashes;\n    mapping(uint256 => address) tokenCreators;\n\n    // Storing conditions for burn\n    mapping(uint256 => address) public tokenMinBalances;\n    mapping(uint256 => uint256) public minBalances;\n    mapping(uint256 => uint256) public expirations;\n\n    // === V1 State Vars END ===\n\n    /**\n     * @dev initialize variables, used for upgradeable contracts\n     */\n    function initialize(\n        IERC20Upgradeable _zut,\n        address payable _feeRecipient,\n        uint256 _ethFee,\n        uint256 _zutFee\n    ) public initializer {\n        ERC1155PresetMinterPauserUpgradeable.initialize(\"\");\n        _baseURI = \"ipfs://\";\n        zut = _zut;\n        feeRecipient = _feeRecipient;\n        ethFee = _ethFee;\n        zutFee = _zutFee;\n    }\n\n    /**\n     * @dev only admin role modifier\n     */\n    modifier onlyAdmin() {\n        require(\n            hasRole(DEFAULT_ADMIN_ROLE, _msgSender()),\n            \"ERC1155PresetMinterPauser: must have admin role to mint\"\n        );\n        _;\n    }\n\n    /**\n     *** GETTERS ****\n     */\n\n    /**\n     * @dev concatenate base uri and ipfs hash of token\n     */\n    function uri(uint256 tokenId)\n        external\n        view\n        override\n        returns (string memory)\n    {\n        return Strings.strConcat(_baseURI, ipfsHashes[tokenId]);\n    }\n\n    /**\n     * @dev tracks current token Id\n     */\n    function currentTokenId() public view returns (uint256) {\n        return _tokenIdTracker.current();\n    }\n\n    /**\n     * @dev contract metadata for marketplace usage\n     */\n    function contractURI() public view returns (string memory) {\n        return _contractURI;\n    }\n\n    /**\n     * @dev Determine if a token can be burned, \n        checking token balances and expiration time\n     */\n    function canBurn(uint256 tokenId, address user)\n        public\n        view\n        virtual\n        returns (bool burnable)\n    {\n        if (balanceOf(user, tokenId) == 0 || tokenCreators[tokenId] == user)\n            return false;\n\n        // Condition 1: Min Balance of ERC20\n        if (tokenMinBalances[tokenId] != address(0)) {\n            if (\n                IERC20Upgradeable(tokenMinBalances[tokenId]).balanceOf(user) <\n                minBalances[tokenId]\n            ) return true;\n        }\n\n        // Condition 2: Expiration time\n        if (\n            expirations[tokenId] > 0 && block.timestamp > expirations[tokenId]\n        ) {\n            return true;\n        }\n    }\n\n    /**\n     * @dev easier way to get all details for token burn conditions\n     */\n    function getConditions(uint256 tokenId)\n        public\n        view\n        returns (\n            address token,\n            uint256 minAmount,\n            uint256 expires\n        )\n    {\n        token = tokenMinBalances[tokenId];\n        minAmount = minBalances[tokenId];\n        expires = expirations[tokenId];\n    }\n\n    /**\n     *** SETTERS ****\n     */\n\n    function increaseTokenId() internal {\n        _tokenIdTracker.increment();\n    }\n\n    /**\n     * @notice Create NFT Collecions paying with ETH\n     */\n    function buyWithETH(\n        uint256 amountTokens,\n        address tokenAddress,\n        uint256 minBalance,\n        uint256 expiration,\n        string memory ipfsHash\n    ) external payable virtual {\n        uint256 amountFee = ethFee.mul(amountTokens);\n\n        require(msg.value >= amountFee, \"Not enough ETH sent\");\n\n        if (expiration > 0)\n            require(expiration > block.timestamp, \"Time in the past\");\n\n        if (minBalance > 0)\n            require(tokenAddress != address(0), \"Invalid Address\");\n\n        uint256 tokenId = _tokenIdTracker.current();\n\n        // Add token properties and conditions\n        ipfsHashes[tokenId] = ipfsHash;\n        tokenMinBalances[tokenId] = tokenAddress;\n        minBalances[tokenId] = minBalance;\n        expirations[tokenId] = expiration;\n\n        // store token creator\n        tokenCreators[tokenId] = msg.sender;\n\n        // Mint token to user\n        _mint(_msgSender(), tokenId, amountTokens, \"\");\n\n        increaseTokenId();\n\n        // send ETH to fee recipient\n        feeRecipient.transfer(amountFee);\n\n        // Refund\n        if (msg.value > amountFee) {\n            _msgSender().transfer(msg.value.sub(amountFee));\n        }\n    }\n\n    /**\n     * @notice Create NFT Collecions paying with ZUT\n     */\n    function buyWithZUT(\n        uint256 amountTokens,\n        address tokenAddress,\n        uint256 minBalance,\n        uint256 expiration,\n        string memory ipfsHash\n    ) external virtual {\n        if (expiration > 0)\n            require(expiration > block.timestamp, \"Time in the past\");\n\n        if (minBalance > 0)\n            require(tokenAddress != address(0), \"Invalid Address\");\n\n        uint256 amountFee = zutFee.mul(amountTokens);\n\n        // Collect fees in ZUT token\n        zut.safeTransferFrom(_msgSender(), feeRecipient, amountFee);\n\n        uint256 tokenId = _tokenIdTracker.current();\n\n        // Add token properties and conditions\n        ipfsHashes[tokenId] = ipfsHash;\n        tokenMinBalances[tokenId] = tokenAddress;\n        minBalances[tokenId] = minBalance;\n        expirations[tokenId] = expiration;\n\n        // store token creator\n        tokenCreators[tokenId] = msg.sender;\n\n        // Mint token to user\n        _mint(_msgSender(), tokenId, amountTokens, \"\");\n\n        increaseTokenId();\n    }\n\n    /**\n     * @notice Burn a NFT token if certain conditions are met\n     */\n    function burnToken(uint256 tokenId, address user) public {\n        require(canBurn(tokenId, user), \"Can't burn token yet\");\n        require(\n            hasRole(keccak256(\"BURNER_ROLE\"), _msgSender()),\n            \"Must have burner role\"\n        );\n\n        _burn(user, tokenId, 1);\n    }\n\n    /**\n     * @notice Burn NFT tokens in a batch transaction\n     */\n    function burnTokenBatch(uint256[] memory tokenIds, address[] memory users)\n        public\n    {\n        for (uint256 i = 0; i < tokenIds.length; i++) {\n            burnToken(tokenIds[i], users[i]);\n        }\n    }\n\n    function _beforeTokenTransfer(\n        address operator,\n        address from,\n        address to,\n        uint256[] memory ids,\n        uint256[] memory amounts,\n        bytes memory data\n    ) internal override {\n        // when its not minting or burning\n        if (from != address(0) && to != address(0))\n            for (uint256 i = 0; i < ids.length; i++) {\n                require(\n                    balanceOf(to, ids[i]) == 0 && amounts[i] == 1,\n                    \"User can own only 1 token per id\"\n                );\n            }\n    }\n\n    /**\n     *** ADMIN ****\n     */\n\n    function setContractURI(string memory ipfsUrl) external onlyAdmin {\n        _contractURI = ipfsUrl;\n    }\n\n    function setBaseURI(string memory baseURI) external onlyAdmin {\n        _baseURI = baseURI;\n    }\n\n    function setETHFee(uint256 _ethFee) external onlyAdmin {\n        ethFee = _ethFee;\n    }\n\n    function setZUTFee(uint256 _zutFee) external onlyAdmin {\n        zutFee = _zutFee;\n    }\n\n    function setFeeRecipient(address payable _feeRecipient) external onlyAdmin {\n        feeRecipient = _feeRecipient;\n    }\n}\n",
  "sourcePath": "/home/dev/work/nft-forge/NFTForge/contracts/ForgeToken.sol",
  "compiler": {
    "name": "solc",
    "version": "0.7.6+commit.7338295f.Emscripten.clang"
  },
  "schemaVersion": "3.3.4",
  "updatedAt": "2021-02-23T19:44:01.450Z",
  "networkType": "ethereum",
  "devdoc": {
    "kind": "dev",
    "methods": {
      "balanceOf(address,uint256)": {
        "details": "See {IERC1155-balanceOf}. Requirements: - `account` cannot be the zero address."
      },
      "balanceOfBatch(address[],uint256[])": {
        "details": "See {IERC1155-balanceOfBatch}. Requirements: - `accounts` and `ids` must have the same length."
      },
      "canBurn(uint256,address)": {
        "details": "Determine if a token can be burned,  checking token balances and expiration time"
      },
      "contractURI()": {
        "details": "contract metadata for marketplace usage"
      },
      "currentTokenId()": {
        "details": "tracks current token Id"
      },
      "getConditions(uint256)": {
        "details": "easier way to get all details for token burn conditions"
      },
      "getRoleAdmin(bytes32)": {
        "details": "Returns the admin role that controls `role`. See {grantRole} and {revokeRole}. To change a role's admin, use {_setRoleAdmin}."
      },
      "getRoleMember(bytes32,uint256)": {
        "details": "Returns one of the accounts that have `role`. `index` must be a value between 0 and {getRoleMemberCount}, non-inclusive. Role bearers are not sorted in any particular way, and their ordering may change at any point. WARNING: When using {getRoleMember} and {getRoleMemberCount}, make sure you perform all queries on the same block. See the following https://forum.openzeppelin.com/t/iterating-over-elements-on-enumerableset-in-openzeppelin-contracts/2296[forum post] for more information."
      },
      "getRoleMemberCount(bytes32)": {
        "details": "Returns the number of accounts that have `role`. Can be used together with {getRoleMember} to enumerate all bearers of a role."
      },
      "grantRole(bytes32,address)": {
        "details": "Grants `role` to `account`. If `account` had not been already granted `role`, emits a {RoleGranted} event. Requirements: - the caller must have ``role``'s admin role."
      },
      "hasRole(bytes32,address)": {
        "details": "Returns `true` if `account` has been granted `role`."
      },
      "initialize(address,address,uint256,uint256)": {
        "details": "initialize variables, used for upgradeable contracts"
      },
      "isApprovedForAll(address,address)": {
        "details": "See {IERC1155-isApprovedForAll}."
      },
      "mint(address,uint256,uint256,bytes)": {
        "details": "Creates `amount` new tokens for `to`, of token type `id`. See {ERC1155-_mint}. Requirements: - the caller must have the `MINTER_ROLE`."
      },
      "mintBatch(address,uint256[],uint256[],bytes)": {
        "details": "xref:ROOT:erc1155.adoc#batch-operations[Batched] variant of {mint}."
      },
      "pause()": {
        "details": "Pauses all token transfers. See {ERC1155Pausable} and {Pausable-_pause}. Requirements: - the caller must have the `PAUSER_ROLE`."
      },
      "paused()": {
        "details": "Returns true if the contract is paused, and false otherwise."
      },
      "renounceRole(bytes32,address)": {
        "details": "Revokes `role` from the calling account. Roles are often managed via {grantRole} and {revokeRole}: this function's purpose is to provide a mechanism for accounts to lose their privileges if they are compromised (such as when a trusted device is misplaced). If the calling account had been granted `role`, emits a {RoleRevoked} event. Requirements: - the caller must be `account`."
      },
      "revokeRole(bytes32,address)": {
        "details": "Revokes `role` from `account`. If `account` had been granted `role`, emits a {RoleRevoked} event. Requirements: - the caller must have ``role``'s admin role."
      },
      "safeBatchTransferFrom(address,address,uint256[],uint256[],bytes)": {
        "details": "See {IERC1155-safeBatchTransferFrom}."
      },
      "safeTransferFrom(address,address,uint256,uint256,bytes)": {
        "details": "See {IERC1155-safeTransferFrom}."
      },
      "setApprovalForAll(address,bool)": {
        "details": "See {IERC1155-setApprovalForAll}."
      },
      "supportsInterface(bytes4)": {
        "details": "See {IERC165-supportsInterface}. Time complexity O(1), guaranteed to always use less than 30 000 gas."
      },
      "unpause()": {
        "details": "Unpauses all token transfers. See {ERC1155Pausable} and {Pausable-_unpause}. Requirements: - the caller must have the `PAUSER_ROLE`."
      },
      "uri(uint256)": {
        "details": "concatenate base uri and ipfs hash of token"
      }
    },
    "title": "Forge Token Protocol",
    "version": 1
  },
  "userdoc": {
    "kind": "user",
    "methods": {
      "burnToken(uint256,address)": {
        "notice": "Burn a NFT token if certain conditions are met"
      },
      "burnTokenBatch(uint256[],address[])": {
        "notice": "Burn NFT tokens in a batch transaction"
      },
      "buyWithETH(uint256,address,uint256,uint256,string)": {
        "notice": "Create NFT Collecions paying with ETH"
      },
      "buyWithZUT(uint256,address,uint256,uint256,string)": {
        "notice": "Create NFT Collecions paying with ZUT"
      },
      "setContractURI(string)": {
        "notice": "*** ADMIN ****"
      }
    },
    "notice": "Mint NFTs with burnable conditions",
    "version": 1
  }
}